:0400000043EF00F0DA
:10000800FACF03F0FBCF04F0E9CF05F0EACF06F012
:10001800E1CF07F0E2CF08F0D9CF09F0DACF0AF044
:10002800F3CF0BF0F4CF0CF0F6CF0DF0F7CF0EF0C6
:10003800F8CF0FF0F5CF10F0A3BEA4AE03D046EC76
:1000480006F000D010C0F5FF0FC0F8FF0EC0F7FF94
:100058000DC0F6FF0CC0F4FF0BC0F3FF0AC0DAFFB7
:1000680009C0D9FF08C0E2FF07C0E1FF06C0EAFFE8
:1000780005C0E9FF04C0FBFF03C0FAFF110022EF2F
:1000880006F0000E0001726F000E716F000E000185
:10009800746F000E736F000E0001756FB9EC06F0F7
:1000A800000E326E000E0001756F00D00FEC07F0E5
:1000B80094EC06F0D9EC06F0344A352A3450351061
:1000C800D8A404D03406D8A0350600D083B602D010
:1000D800010E01D0000E386E3850D8A40AD0364A26
:1000E800372A36503710D8A409D03606D8A0370694
:1000F80005D0000E376E000E366E00D03204D8A43C
:1001080021D03304D8B40BD0000E356E000E346EF7
:10011800000E376E000E366E010E336E00D02BECDB
:1001280007F022EC07F0000E3A6E000E3B6E000E50
:100138003C6E000E3D6E3950D8B472D0020E71D0AC
:100148006FD0D1D0020E3218D8A422D0020E3318A4
:10015800D8B406D0000E356E000E346E020E336E23
:10016800E40E3A6EC80E3B6E000E3C6E000E3D6EFD
:1001780028EC07F025EC07F03950D8A403D0010E7D
:10018800326E00D03804D8A4AED0030E4AD0ABD01B
:10019800030E3218D8A424D0030E3318D8B406D0CE
:1001A800000E356E000E346E030E336EF80E3A6E86
:1001B800F80E3B6EF80E3C6E000E3D6E28EC07F014
:1001C80025EC07F03950D8A405D022EC07F0040E2E
:1001D800326E00D03850D8A486D0050E22D083D0F5
:1001E800040E3218D8A41FD0040E3318D8B406D081
:1001F800000E356E000E346E040E336EFC0E3A6E31
:10020800000E3B6E000E3C6E000E3D6E28EC07F0B3
:1002180022EC07F0375004E1650E365CD8A063D0B5
:10022800010E326E60D0050E3218D8A42CD0050EFF
:100238003318D8B406D0000E356E000E346E050E95
:10024800336EF00E3A6E000E3B6EF80E3C6E000EEA
:100258003D6E28EC07F035500AE1C80E345CD8B082
:1002680006D03850D8B403D0030E326E00D03550C3
:1002780004E1C90E345CD8A036D03850D8A433D0A5
:10028800010E326E30D03250D8A42DD0010E326E0D
:10029800000E336E000E356E000E346E000E376E93
:1002A800000E366EFDEC05F0000E3A6E000E3B6E49
:1002B800F80E3C6E000E3D6E000E0001766F000ECB
:1002C800776F000E786F000E796F2BEC07F025EC36
:1002D80007F000D08B9400D08B9000D0000E476EB2
:1002E800000E466E00D08B8A00D0EFEC06F0000EB0
:1002F80066EC06F011C040F012C041F0010E66EC49
:1003080006F011C03EF012C03FF0020E66EC06F097
:1003180011C042F012C043F0190E66EC06F011C08D
:1003280073F012C074F073C011F074C012F0136A45
:10033800146A880E156E130E166E000E176E000ED8
:10034800186EA7EC05F00B0E05D0D89014321332B6
:1003580012321132E82EF9D711C06DF012C06EF0CA
:100368000F0E66EC06F011C071F012C072F071C089
:1003780011F072C012F0136A146A880E156E130E0B
:10038800166E000E176E000E186EA7EC05F00A0E1A
:1003980005D0D8901432133212321132E82EF9D720
:1003A80011C06FF012C070F000D08B9A00D0570EB9
:1003B800276E3F0E286E3AC029F03BC02AF03CC099
:1003C8002BF03DC02CF0A4EC02F0870E276E3F0EF8
:1003D800286E47C029F02A6AA4EC02F0780E276E2E
:1003E8003F0E286E46C029F02A6AA4EC02F0F10EEE
:1003F800276E3F0E286E34C029F035C02AF0A4ECD1
:1004080002F0E40E276E3F0E286E36C029F037C082
:100418002AF0A4EC02F0B00E276E3F0E286E32C010
:1004280029F02A6AA4EC02F0BD0E276E3F0E286E52
:1004380039C029F02A6AA4EC02F0D70E276E3F0EC5
:10044800286E38C029F02A6AA4EC02F0A30E276EA1
:100458003F0E286E40C029F041C02AF0A4EC02F0FB
:10046800960E276E3F0E286E3EC029F03FC02AF038
:10047800A4EC02F0CA0E276E3F0E286E42C029F087
:1004880043C02AF0A4EC02F0460E276E3F0E286EF9
:100498006DC029F06EC02AF0A4EC02F0680E276E39
:1004A8003F0E286E6FC029F070C02AF0A4EC02F04D
:1004B80000D03A50000176190DE13B500001771940
:1004C80009E13C500001781905E13D500001791916
:1004D800D8B419D0F29EF29C16EC07F03AC011F08D
:1004E8003BC012F03CC013F03DC014F077EC05F0AF
:1004F8000FEC07F03AC076F03BC077F03CC078F0DC
:100508003DC079F000D0F28EF28C00D001EC07F0FB
:100518000009D8B4FBD70001752B7505316E030EA1
:10052800316406D08B7000D0000E0001756F00D0CA
:1005380008EC07F0396ED4EC05F0B8D543EF00F0BD
:10054800290E0001616F000E0001626FFAD1250EBD
:1005580000016C19D8B405D000016C511DEC07F0EE
:10056800F0D1000E00016B6F000E6A6F000E0001E3
:10057800696F06D000016985274A282A01D00BD067
:1005880027C0F6FF28C0F7FF0800F550300AD8B496
:10059800F1D701D0F5D727C0F6FF28C0F7FF08002C
:1005A800F550A8EC06F0D8A045D0000E00016B6FFE
:1005B800000E6A6F00D06AC011F06BC012F0000E16
:1005C800146E0A0E136E80EC06F011C06AF012C0A9
:1005D8006BF0D00E2D6EFF0E2E6E27C0F6FF28C0D2
:1005E800F7FF0800F5502F6E306A2D502F262E5039
:1005F80030222F5000016A27305000016B23274A10
:10060800282A27C0F6FF28C0F7FF0800F550A8ECF5
:1006180006F0D8A00FD0CFD70DD0120000016989FD
:1006280009D000D00001698F20D08BD1C00E000105
:1006380069131BD027C0F6FF28C0F7FF274A282ACE
:100648000800F5CF6CF000016C51000AD8B4120014
:10065800580AD8B4E7D7340AD8B4E0D7190AD8B4B6
:10066800E5D70D0AD8B4DED76CD1000169A90ED040
:1006780061C0D9FF62C0DAFFDECF65F0DECF66F079
:10068800DECF67F0DECF68F0040E10D061C0D9FF6E
:1006980062C0DAFFDECF2DF0DDCF2EF02DC065F081
:1006A8002EC066F00001676B686B020E00016127BF
:1006B800000E622356D0010E00016C6F0A0E000175
:1006C8006C19D8B458D001D056D000016C51040D23
:1006D800ED0EF324F66E3E0EF420F76E0900F55089
:1006E8000001655D0900F550000166590900F550E3
:1006F800000167590900F55000016859D8A03BD09E
:1007080001D039D000016C2BD9D735D0010E0001AA
:100718006C6F080E00016C19D8B42DD001D02BD005
:1007280000016C51040D150EF324F66E3F0EF420F3
:10073800F76E0900F5500001655D0900F5500001EC
:1007480066590900F550000167590900F550000184
:100758006859D8A010D001D00ED000016C2BD9D781
:100768000AD000016951C00B800AD8B4CFD7400A1B
:10077800D8B4A1D700D0800E00016CBF7F0E2D6EBB
:1007880000016A5100016C5D00016B51800A2D580F
:10079800D8B00BD000016C5100016A5F000E000157
:1007A8006CBFFF0E00016B5B06D0000E00016B6F83
:1007B800000E6A6F00D0000169A515D000016A51CA
:1007C80000016B11D8B424D0300E1DEC07F00001E5
:1007D8006A07D8A06B0700016A5100016B11D8B4F1
:1007E80017D0F2D715D000016A5100016B11D8B4A7
:1007F8000FD0200E1DEC07F000016A07D8A06B0788
:1008080000016A5100016B11D8B402D0F2D700D0B0
:1008180000016C510001636F646B63BF640784D08F
:1008280074D063C02DF064C02EF0D8902D362E36CB
:10083800D8902D362E36ED0E2D24F66E3E0E2E2037
:10084800F76E0900F5CF15F00900F5CF16F009008D
:10085800F5CF17F00A00F5CF18F065C011F066C0A3
:1008680012F067C013F068C014F0B5EC04F011C0C2
:100878001EF012C01FF013C020F014C021F00A0EA1
:10088800226E000E236E000E246E000E256E3FECC5
:1008980005F01E50300F00016C6F41D065C011F09B
:1008A80066C012F067C013F068C014F063C02DF082
:1008B80064C02EF0D8902D362E36D8902D362E3690
:1008C800150E2D24F66E3F0E2E20F76E0900F5CF7B
:1008D80015F00900F5CF16F00900F5CF17F00A005A
:1008E800F5CF18F0B5EC04F011500F0B0001606F54
:1008F80000016051010D350EF324F66E3F0EF42011
:10090800F76E0800F5CF6CF00AD000016951C00BF2
:10091800800AD8B4C3D7400AD8B483D700D000011E
:100928006C511DEC07F000D000016307D8A06407E4
:1009380000016329EAE100016429D8B402D0E5D7AF
:1009480000D027C0F6FF28C0F7FF274A282A08004A
:10095800F5CF6CF000016C51D8B41200F8D5120034
:100968001200000E196E000E1A6E000E1B6E000E9D
:100978001C6E1550161017101810D8B42FD0010E71
:100988001D6E07D0D89015361636173618361D2A1C
:1009980000D018BE02D0F6D700D0D89019361A3633
:1009A8001B361C361550115C165012581750135828
:1009B80018501458D8A00AD01550115E1650125A63
:1009C8001750135A1850145A198000D0D89018325A
:1009D8001732163215321D2EE0D700D019C011F08B
:1009E8001AC012F01BC013F01CC014F01200016EE4
:1009F80035D0010E456E120008D049C044F00DD024
:100A080000D0442A030E441608D04550000AD8B432
:100A1800F8D7010AD8B4F1D7F4D7000E456E120002
:100A28004450D8A403D047C06FFF00D04404D8A4D2
:100A380003D040C06FFF0ED0020E4418D8A403D0D4
:100A48003EC06FFF07D0030E4418D8A403D042C09D
:100A58006FFF00D0442A030E441612000150000A0A
:100A6800D8B4C7D7010AD8B4DBD7030AD8B4CDD7CE
:100A7800010A120012002250231024102510D8B4A5
:100A880029D0010E266E07D0D89022362336243678
:100A98002536262A00D025BE02D0F6D700D022500F
:100AA8001E5C23501F582450205825502158D8A088
:100AB80009D022501E5E23501F5A2450205A255018
:100AC800215A00D0D8902532243223322232262EC1
:100AD800E6D700D01EC01EF01FC01FF020C020F0B7
:100AE80021C021F01200000E196E170E196401D0F2
:100AF80025D011A006D0828200F000F000F082928A
:100B080006D08282829200F000F000F000D011C07E
:100B180015F012C016F013C017F014C018F0D890D2
:100B2800183217321632153215C011F016C012F0ED
:100B380017C013F018C014F0192AD7D7C80E00F040
:100B4800E82EFDD71200000E196E000E1A6E000E68
:100B58001B6E000E1C6E00D011A009D0155019266E
:100B680016501A2217501B2218501C2200D0D89059
:100B78001536163617361836D89014321332123204
:100B880011321150121013101410D8A4E5D719C03F
:100B980011F01AC012F01BC013F01CC014F01200A0
:100BA80032C011F0070E111682A803D0100E126E73
:100BB80001D0126A38C013F0010E1316050E146E18
:100BC800D8901336142EFCD783A403D0400E156E8C
:100BD80001D0156A39C016F0010E1616000E16B0AF
:100BE800800E166E16501510131012101110476E45
:100BF8001200000E896E92682F0E0F01386F000EDA
:100C08008A6E93683F0E0F01396F000E616E010EF8
:100C18008B6EC80E946E080E0F013A6F030E8C6E21
:100C2800FB0E956EF00E0F013B6F000E8D6E070EDA
:100C3800966E070E0F013C6FF18E120000EE32F037
:100C4800160EEE6AE806FDE1680EF66E0E0EF76EF9
:100C5800000EF86E00EE76F010EE04F00900F5CF05
:100C6800EEFFE550E150FAE1700EF66E0E0EF76EEB
:100C7800000EF86E0900F5CF49F0000EF86E00017D
:100C880045EF00F0550E026EA49E6FCF02F06DA4E2
:100C98000BD06DBA6BAC04D0030EFBEC04F010D093
:100CA800010EFBEC04F00CD06DBA04D0000EFBEC86
:100CB80004F006D002C049F0020EFBEC04F000D0AC
:100CC8006C881200156E15C013F013461346C250F7
:100CD8001318830B1318C26EC280C28200D0C2B22E
:100CE800FED7C450146E136AC3501324116E000E3D
:100CF8001420126E1200120011501302F3CF15F0D7
:100D0800F4CF16F011501402F350162612501302A5
:100D1800F350162615C011F016C012F0120012007A
:100D2800340E0F014E6F000E0F014D6F3C0E0F0178
:100D3800506FB00E0F014F6F4FCF7AF050CF7BF04E
:100D48007E922EEC07F01200136E000E126E3A0E11
:100D5800136006D02F0E136403D0010E126E00D05C
:100D680012C011F01130120012000FEC07F0FDEC68
:100D780005F031EC07F0EFEC06F0D9EC06F094EC56
:100D880006F0E4EC06F0CAEC06F01200000E6D6EF8
:100D9800260E6C6E000E6B6E000E696EFE0E6A6E8D
:100DA800AC0E6E6EA49EA38E1200D568000ED76E90
:100DB800FD0ED66EFD0E486EF29436EC07F012006A
:100DC800480EB86E800EAB6E260EAC6E440EAF6E3B
:100DD800000EB06E1200010EC26E000EC16EB60E8D
:100DE800C06E000EC36E000EC46E1200116E00D0ED
:100DF8009EA8FED711C0ADFF12007EA202D0010E40
:100E08001200000E12001200F2A402D0010E12000D
:100E1800000E12001200720ED36E040ED26E000E77
:100E28009B6E1200700ED36E040ED26E400E9B6E37
:100E38001200126E1250FAEC06F012008B98120093
:100E480012008B88120012008C84120012008C94FD
:100E5800120012000F014E811200D09EA59E1200B2
:0A0E680001000000D58E12005500B5
:103EEC0000010000000A00000064000000E803006C
:103EFC000010270000A086010040420F0080969819
:103F0C000000E1F50500CA9A3B010000001000001A
:103F1C000000010000001000000000010000001073
:103F2C00000000000100000010303132333435360F
:103F3C00373839414243444546000A0A0D5069332B
:103F4C0056202020202575206D56000A0A0D4C4560
:103F5C004420202030782530386C58000A0D5069E8
:103F6C003556202020202575206D56000A0D43540F
:103F7C00524C2020307825303258000A0D535441D1
:103F8C00542020307825303258000A0D42414E44DE
:103F9C00202020202575000A0D54554E4520202048
:103FAC00202575000A0D53544154452020202575B9
:103FBC00000A0D41435F4F4E2020202575000A0D4D
:103FCC00564F4C554D4520202575000A0D50495F24
:103FDC0052554E20202575000A0D53505F434E5408
:103FEC0020202575000A0D53545F434E5420202584
:043FFC00750000004C
:020000040020DA
:08000000FFFFFFFFFFFFFFFF00
:020000040030CA
:0E000000FF081F3CFFAF81FF03C003E0034079
:00000001FF
