:0400000055EF00F0C8
:100008004982FACF03F0FBCF04F0E9CF05F0EACF3D
:1000180006F0E1CF07F0E2CF08F0D9CF09F0DACF48
:100028000AF0F3CF0BF0F4CF0CF0F6CF0DF0F7CFCA
:100038000EF0F8CF0FF0F5CF10F049C011F04AC01C
:1000480012F04BC013F04CC014F0F2BCA3AE03D0B6
:10005800A4BED3EC05F014C04CF013C04BF012C092
:100068004AF011C049F010C0F5FF0FC0F8FF0EC0EC
:10007800F7FF0DC0F6FF0CC0F4FF0BC0F3FF0AC07A
:10008800DAFF09C0D9FF08C0E2FF07C0E1FF06C0D8
:10009800EAFF05C0E9FF04C0FBFF03C0FAFF49926D
:1000A80011008BEF05F0000E0001796F000E786FDC
:1000B800000E7B6F000E7A6F000E7C6F1DEC06F051
:1000C800000E0001606F000E7C6F7FEC06F02EECD6
:1000D80006F05DEC06F00001624B632B6251631180
:1000E800D8A403D06207D8A0630783B602D0010E54
:1000F80001D0000E666F6651D8A40AD0644B652BF8
:1001080064516511D8A408D06407D8A0650704D045
:10011800000E656F000E646F6005D8A41FD06105DE
:10012800D8B40AD0000E636F000E626F000E656FC0
:10013800000E646F010E616FAFEC06F0A9EC06F0DB
:10014800000E0001686F000E696F000E6A6F000EE6
:100158006B6F6751D8B49ED0020E9DD0020E601905
:10016800D8A421D0020E6119D8B406D0000E636F4E
:10017800000E626F020E616FE40E686FC80E696F41
:10018800000E6A6F000E6B6FADEC06F0ABEC06F07C
:1001980000016751D8A402D0010E606F6605D8A48B
:1001A800A9D0030E78D0030E6019D8A424D0030E6A
:1001B8006119D8B406D0000E636F000E626F030E8B
:1001C800616FF80E686FF80E696FF80E6A6F000EAF
:1001D8006B6FADEC06F0ABEC06F000016751D8A4EC
:1001E80005D0A9EC06F0040E0001606F6651D8A492
:1001F80081D0050E50D0040E6019D8A41ED0040E6C
:100208006119D8B406D0000E636F000E626F040E39
:10021800616FFC0E686F000E696F000E6A6F000E4A
:100228006B6FADEC06F0A9EC06F00001655132E108
:10023800650E645DD8A05ED02DD0050E6019D8A4D7
:100248002CD0050E6119D8B406D0000E636F000ECD
:10025800626F050E616FF00E686F000E696FF80E21
:100268006A6F000E6B6FADEC06F00001635109E197
:10027800C80E625DD8B005D06651D8B402D0030E5E
:10028800606F635104E1C90E625DD8A033D0665136
:10029800D8A430D0010E606F2DD06051D8A42AD0D8
:1002A800010E606F000E616F000E636F000E626FCB
:1002B800000E656F000E646FB3EC05F0000E0001D0
:1002C800686F000E696FF80E6A6F000E6B6F000E94
:1002D8007D6F000E7E6F000E7F6F000E806FAFEC9B
:1002E80006F0ABEC06F08B948B90000E0001736F58
:1002F800000E726F8B8A74EC06F0000EF2EC05F0BB
:1003080015C070F016C071F0010EF2EC05F015C0C2
:100318006EF016C06FF0020EF2EC05F015C06CF02E
:1003280016C06DF0190EF2EC05F015C07AF016C083
:100338007BF07AC015F07BC016F0176A186A880E31
:10034800196E130E1A6E000E1B6E000E1C6E36EC24
:1003580005F00B0E05D0D890183217321632153228
:10036800E82EF9D715C074F016C075F00F0EF2EC30
:1003780005F015C078F016C079F078C015F079C08E
:1003880016F0176A186A880E196E130E1A6E000E88
:100398001B6E000E1C6E36EC05F00A0E05D0D890C8
:1003A8001832173216321532E82EF9D715C076F002
:1003B80016C077F08B9A570E2B6E3F0E2C6E68C0C6
:1003C8002DF069C02EF06AC02FF06BC030F0A9EC98
:1003D80002F0870E2B6E3F0E2C6E73C02DF02E6A26
:1003E800A9EC02F0780E2B6E3F0E2C6E72C02DF029
:1003F8002E6AA9EC02F0F10E2B6E3F0E2C6E62C035
:100408002DF063C02EF0A9EC02F0E40E2B6E3F0E27
:100418002C6E64C02DF065C02EF0A9EC02F0B00E71
:100428002B6E3F0E2C6E60C02DF02E6AA9EC02F0E8
:10043800BD0E2B6E3F0E2C6E67C02DF02E6AA9ECF8
:1004480002F0D70E2B6E3F0E2C6E66C02DF02E6A72
:10045800A9EC02F0A30E2B6E3F0E2C6E70C02DF08F
:1004680071C02EF0A9EC02F0960E2B6E3F0E2C6E8A
:100478006EC02DF06FC02EF0A9EC02F0CA0E2B6EE4
:100488003F0E2C6E6CC02DF06DC02EF0A9EC02F062
:10049800460E2B6E3F0E2C6E74C02DF075C02EF0DC
:1004A800A9EC02F0680E2B6E3F0E2C6E76C02DF074
:1004B80077C02EF0A9EC02F0000168517D190AE11D
:1004C80069517E1907E16A517F1904E16B5180195E
:1004D800D8B418D0F29EF29C86EC06F068C015F0ED
:1004E80069C016F06AC017F06BC018F007EC05F089
:1004F8007FEC06F068C07DF069C07EF06AC07FF0CE
:100508006BC080F0F28EF28C93EC06F00009D8B440
:10051800FBD700017C2B7C05426E030E42640ED093
:100528008BA002D0010E01D0000EFF0A426E8B5044
:100538004218FE0B42188B6E000E7C6F99EC06F089
:100548000001676F61EC05F0C0D52D0E366E000E08
:10055800376E9BD1250E4118D8B404D041509FEC7A
:1005680006F093D1000E406E000E3F6E000E3E6EF8
:1005780003D03E842B4A2C2A2BC0F6FF2CC0F7FF51
:100588000800F550300AD8B4F4D72BC0F6FF2CC0B9
:10059800F7FF0800F5503FEC06F0D8A03AD0000E5F
:1005A800406E000E3F6E3FC015F040C016F0000EC2
:1005B800186E0A0E176E0AEC06F015C03FF016C04A
:1005C80040F0D00E316EFF0E326E2BC0F6FF2CC0FD
:1005D800F7FF0800F550336E346A31503326325035
:1005E800342233503F26345040222B4A2C2A2BC029
:1005F800F6FF2CC0F7FF0800F5503FEC06F0D8A036
:1006080008D0D1D73E8805D03E8E1DD0C00E3E12F0
:100618001AD02BC0F6FF2CC0F7FF2B4A2C2A080053
:10062800F5CF41F04150000AD8B41200580AD8B4A6
:10063800EBD7340AD8B4E6D7190AD8B4E7D70D0AE5
:10064800D8B4E2D722D13EA80ED036C0D9FF37C0E1
:10065800DAFFDECF3AF0DECF3BF0DECF3CF0DECF84
:100668003DF0040E0FD036C0D9FF37C0DAFFDECF19
:1006780031F0DDCF32F031C03AF032C03BF03C6AA5
:100688003D6A020E3626000E37223CD0010E416E1E
:100698000A0E4118D8B43ED04150040DED0EF32493
:1006A800F66E3E0EF420F76E0900F5503A5C09002C
:1006B800F5503B580900F5503C580900F5503D5895
:1006C800D8A028D0412AE4D7010E416E080E41185F
:1006D800D8B420D04150040D150EF324F66E3F0E09
:1006E800F420F76E0900F5503A5C0900F5503B58C4
:1006F8000900F5503C580900F5503D58D8A00AD0DB
:10070800412AE4D73E50C00B800AD8B4DDD7400A4E
:10071800D8B4BCD7800E41BE7F0E316E3F50415CCD
:100728004050800A3158D8B007D041503F5E000E83
:1007380041BEFF0E405A04D0000E406E000E3F6EC0
:100748003EA40BD03F504010D8B415D0300E9FECCB
:1007580006F03F06D8A04006F5D73F504010D8B461
:100768000AD0200E9FEC06F03F06D8A040063F5066
:100778004010D8A4F6D74150386E396A38BE3906C9
:100788007CD038C031F039C032F0D89031363236AA
:10079800D89031363236ED0E3124F66E3E0E3220C8
:1007A800F76E0900F5CF19F00900F5CF1AF0090026
:1007B800F5CF1BF00A00F5CF1CF03AC015F03BC08E
:1007C80016F03CC017F03DC018F056EC04F015C008
:1007D80022F016C023F017C024F018C025F00A0E26
:1007E800266E000E276E000E286E000E296ED4ECC1
:1007F80004F02250300F416E3DD03AC015F03BC096
:1008080016F03CC017F03DC018F038C031F039C0C0
:1008180032F0D89031363236D89031363236150E1D
:100828003124F66E3F0E3220F76E0900F5CF19F02D
:100838000900F5CF1AF00900F5CF1BF00A00F5CF33
:100848001CF056EC04F015500F0B356E3550010DA9
:10085800350EF324F66E3F0EF420F76E0800F5CF40
:1008680041F008D03E50C00B800AD8B4C6D7400A21
:10087800D8B487D741509FEC06F03806D8A039067F
:100888003828F0E13928D8A4EDD72BC0F6FF2CC0C2
:10089800F7FF2B4A2C2A0800F5CF41F04150D8B475
:1008A800120058D6000E1D6E000E1E6E000E1F6E32
:1008B800000E206E19501A101B101C10D8B42AD024
:1008C800010E216E06D0D89019361A361B361C3602
:1008D800212A1CAEF8D7D8901D361E361F36203672
:1008E8001950155C1A5016581B5017581C50185898
:1008F800D8A009D01950155E1A50165A1B50175A0D
:100908001C50185A1D80D8901C321B321A321932CA
:10091800212EE1D71DC015F01EC016F01FC017F01C
:1009280020C018F01200016E2FD0010E466E120082
:1009380048C047F00CD0472A030E471608D0465047
:10094800000AD8B4F8D7010AD8B4F2D7F4D7000E01
:10095800466E12004750D8B473C06FFF4704D8A43E
:1009680003D070C06FFF0CD0020E4718D8A403D074
:100978006EC06FFF05D0030E4718D8B46CC06FFF68
:10098800472A030E471612000150000AD8B4CDD7E3
:10099800010AD8B4DFD7030AD8B4D1D7010A1200A4
:1009A8002650271028102910D8B424D0010E2A6EFA
:1009B80006D0D89026362736283629362A2A29AE50
:1009C800F8D72650225C27502358285024582950FD
:1009D8002558D8A008D02650225E2750235A2850E0
:1009E800245A2950255AD8902932283227322632BB
:1009F8002A2EE7D722C022F023C023F024C024F0F7
:100A080025C025F01200000E1D6E170E1D6401D0C2
:100A180024D015A006D0828200F000F000F0829267
:100A280005D08282829200F000F000F015C019F023
:100A380016C01AF017C01BF018C01CF0D8901C3252
:100A48001B321A32193219C015F01AC016F01BC021
:100A580017F01CC018F01D2AD8D7A00E00D0E82E19
:100A6800FDD71200000E1D6E000E1E6E000E1F6ECA
:100A7800000E206E15A008D019501D261A501E22EF
:100A88001B501F221C502022D89019361A361B36AC
:100A98001C36D890183217321632153215501610E7
:100AA80017101810D8A4E6D71DC015F01EC016F0F0
:100AB8001FC017F020C018F0120060C015F0070E14
:100AC800151682A803D0100E166E01D0166A66C0DD
:100AD80017F0010E1716050E186ED8901736182E37
:100AE800FCD783A403D0400E196E01D0196A67C0E1
:100AF8001AF0010E1A16000E1AB0800E1A6E1A504D
:100B080019101710161015100001736F12004E0EF1
:100B1800F66E0D0EF76E000EF86E00EE7DF010EE1C
:100B280004F00900F5CFEEFFE550E150FAE16A0E56
:100B3800F66E0D0EF76E000EF86E0900F5CF48F050
:100B480000EE60F0140EEE6AE806FDE1476A466AB8
:100B580049904992000EF86E000157EF00F0000E20
:100B68008D6E000E8C6E000E896E000E8A6E010E60
:100B78008B6E070E966E92689368880E946EFB0EC5
:100B8800956E080E0F013A6F3F0E396FF00E3B6FEE
:100B9800070E3C6F2F0E386F6168F19E1200550EDC
:100BA800026EA49E6FCF02F06DA40BD06DBA6BAC31
:100BB80004D0030E97EC04F00FD0010E97EC04F06C
:100BC8000BD06DBA04D0000E97EC04F005D002C02B
:100BD80048F0020E97EC04F06C881200196E19C0E8
:100BE80017F017461746C2501718830B1718C26E0E
:100BF800C280C282C2B2FED7C450186E176AC350F0
:100C08001724156E000E1820166E120015501702C4
:100C1800F3CF19F0F4CF1AF015501802F3501A2632
:100C280016501702F3501A2619C015F01AC016F0FC
:100C38001200B3EC06F0B3EC05F07FEC06F04EECD6
:100C480006F074EC06F02EEC06F05DEC06F069ECAC
:100C580006F01200300E0F014E6F000E4D6F3C0E65
:100C6800506FB00E4F6F4FCF43F050CF44F07E928D
:100C7800A4EC06F01200176E000E166E3A0E1760FE
:100C880005D02F0E176402D0010E166E16C015F08F
:100C980015301200000E6D6E260E6C6E010E6B6E16
:100CA800000E696EFE0E6A6E880E6E6EA49EA38E8E
:100CB80012007F0ED56E000ED76EFC0ED66EFC0E9F
:100CC800456EF294B1EC06F01200080EB86E900E64
:100CD800AB6E240EAC6E440EAF6E000EB06E1200FA
:100CE800010EC26E000EC16E120EC06E000EC36EF3
:100CF800000EC46E1200700ED36E040ED26E000E7B
:100D08009B6E1200700ED36E040ED26E400E9B6E58
:100D18001200156E9EA8FED715C0ADFF12007EA268
:100D280002D0010E1200000E1200F2A402D0010E31
:100D38001200000E1200166E16508DEC06F012000E
:100D48000F014E811200010000008B9812008B8861
:100D580012008C8412008C941200D58E1200D09E42
:030D680012005521
:103EEC0000010000000A00000064000000E803006C
:103EFC000010270000A086010040420F0080969819
:103F0C000000E1F50500CA9A3B010000001000001A
:103F1C000000010000001000000000010000001073
:103F2C00000000000100000010303132333435360F
:103F3C00373839414243444546000A0A0D5069332B
:103F4C0056202020202575206D56000A0A0D4C4560
:103F5C004420202030782530386C58000A0D5069E8
:103F6C003556202020202575206D56000A0D43540F
:103F7C00524C2020307825303258000A0D535441D1
:103F8C00542020307825303258000A0D42414E44DE
:103F9C00202020202575000A0D54554E4520202048
:103FAC00202575000A0D53544154452020202575B9
:103FBC00000A0D41435F4F4E2020202575000A0D4D
:103FCC00564F4C554D4520202575000A0D50495F24
:103FDC0052554E20202575000A0D53505F434E5408
:103FEC0020202575000A0D53545F434E5420202584
:033FFC007500004D
:020000040020DA
:08000000FFFFFFFFFFFFFFFF00
:020000040030CA
:0E000000FF281F3CFFBF81FF03C003E0034049
:00000001FF
