:0400000055EF00F0C8
:100008004A82FACF03F0FBCF04F0E9CF05F0EACF3C
:1000180006F0E1CF07F0E2CF08F0D9CF09F0DACF48
:100028000AF0F3CF0BF0F4CF0CF0F6CF0DF0F7CFCA
:100038000EF0F8CF0FF0F5CF10F04AC011F04BC01A
:1000480012F04CC013F04DC014F0F2BCA3AE03D0B4
:10005800A4BE0FEC06F014C04DF013C04CF012C053
:100068004BF011C04AF010C0F5FF0FC0F8FF0EC0EA
:10007800F7FF0DC0F6FF0CC0F4FF0BC0F3FF0AC07A
:10008800DAFF09C0D9FF08C0E2FF07C0E1FF06C0D8
:10009800EAFF05C0E9FF04C0FBFF03C0FAFF4A926C
:1000A8001100C7EF05F0000E0001DE6F000EDD6FD6
:1000B800000EE06F000EDF6F59EC06F0000E000135
:1000C800C46F000ED66FBBEC06F06AEC06F099EC34
:1000D80006F00001C64BC72BC651C711D8A403D0E0
:1000E800C607D8A0C70783B602D0010E01D0000EFC
:1000F800CA6FCA51D8A40AD0C84BC92BC851C91154
:10010800D8A408D0C807D8A0C90704D0000EC96F62
:10011800000EC86FC405D8A41FD0C505D8B40AD02E
:10012800000EC76F000EC66F000EC96F000EC86FB5
:10013800010EC56FE9EC06F0E3EC06F0000E0001D5
:10014800CC6F000ECD6F000ECE6F000ECF6FCB516F
:10015800D8B49ED0020E9DD0020EC419D8A421D0C6
:10016800020EC519D8B406D0000EC76F000EC66FB0
:10017800020EC56FE40ECC6FC80ECD6F000ECE6FA9
:10018800000ECF6FE7EC06F0E5EC06F00001CB516E
:10019800D8A402D0010EC46FCA05D8A4A9D0030EF2
:1001A80078D0030EC419D8A424D0030EC519D8B426
:1001B80006D0000EC76F000EC66F030EC56FF80E8F
:1001C800CC6FF80ECD6FF80ECE6F000ECF6FE7EC48
:1001D80006F0E5EC06F00001CB51D8A405D0E3EC1D
:1001E80006F0040E0001C46FCA51D8A481D0050ED0
:1001F80050D0040EC419D8A41ED0040EC519D8B402
:1002080006D0000EC76F000EC66F040EC56FFC0E39
:10021800CC6F000ECD6F000ECE6F000ECF6FE7ECE7
:1002280006F0E3EC06F00001C95132E1650EC85D45
:10023800D8A05ED02DD0050EC419D8A42CD0050E98
:10024800C519D8B406D0000EC76F000EC66F050ECC
:10025800C56FF00ECC6F000ECD6FF80ECE6F000E8E
:10026800CF6FE7EC06F00001C75109E1C80EC65D83
:10027800D8B005D0CA51D8B402D0030EC46FC75144
:1002880004E1C90EC65DD8A033D0CA51D8A430D075
:10029800010EC46F2DD0C451D8A42AD0010EC46F4A
:1002A800000EC56F000EC76F000EC66F000EC96F37
:1002B800000EC86FEFEC05F0000E0001CC6F000EC9
:1002C800CD6FF80ECE6F000ECF6F000EC06F000E10
:1002D800C16F000EC26F000EC36FE9EC06F0E5ECCB
:1002E80006F08B948B90000E0001D86F000ED76F2C
:1002F8008B8AB0EC06F0000E2EEC06F015C0D4F098
:1003080016C0D5F0010E2EEC06F015C0D2F016C0BE
:10031800D3F0020E2EEC06F015C0D0F016C0D1F0C6
:10032800190E2EEC06F015C0DFF016C0E0F0DFC0A5
:1003380015F0E0C016F0176A186A880E196E130EC9
:100348001A6E000E1B6E000E1C6E72EC05F00B0E82
:1003580005D0D8901832173216321532E82EF9D750
:1003680015C0D9F016C0DAF00F0E2EEC06F015C045
:10037800DDF016C0DEF0DDC015F0DEC016F0176A3D
:10038800186A880E196E130E1A6E000E1B6E000E78
:100398001C6E72EC05F00A0E05D0D8901832173290
:1003A80016321532E82EF9D715C0DBF016C0DCF08E
:1003B8008B9A570E2B6E3F0E2C6ECCC02DF0CDC0F5
:1003C8002EF0CEC02FF0CFC030F0B3EC02F0870E85
:1003D8002B6E3F0E2C6ED8C02DF02E6AB3EC02F0B7
:1003E800780E2B6E3F0E2C6ED7C02DF02E6AB3EC14
:1003F80002F0F10E2B6E3F0E2C6EC6C02DF0C7C05A
:100408002EF0B3EC02F0E40E2B6E3F0E2C6EC8C03B
:100418002DF0C9C02EF0B3EC02F0B00E2B6E3F0EDB
:100428002C6EC4C02DF02E6AB3EC02F0BD0E2B6EFC
:100438003F0E2C6ECBC02DF02E6AB3EC02F0D70E17
:100448002B6E3F0E2C6ECAC02DF02E6AB3EC02F054
:10045800A30E2B6E3F0E2C6ED4C02DF0D5C02EF0FF
:10046800B3EC02F0960E2B6E3F0E2C6ED2C02DF020
:10047800D3C02EF0B3EC02F0CA0E2B6E3F0E2C6EDA
:10048800D0C02DF0D1C02EF0B3EC02F0460E2B6E8A
:100498003F0E2C6ED9C02DF0DAC02EF0B3EC02F06E
:1004A800680E2B6E3F0E2C6EDBC02DF0DCC02EF0DC
:1004B800B3EC02F00001CC51C0190AE1CD51C119C9
:1004C80007E1CE51C21904E1CF51C319D8B418D0ED
:1004D800F29EF29CC2EC06F0CCC015F0CDC016F02E
:1004E800CEC017F0CFC018F043EC05F0BBEC06F017
:1004F800CCC0C0F0CDC0C1F0CEC0C2F0CFC0C3F0F8
:10050800F28EF28CCFEC06F00009D8B4FBD70001CC
:10051800D62BD605426E0F0E426402D0000ED66F5F
:10052800C451100D600E426E000E436EF350422609
:10053800F4504322D651010DF3504224D96EF450A1
:100548004320DA6EDF50D8A402D08B9001D08B8084
:10055800D5EC06F00001CB6F9DEC05F0B4D52D0E5F
:10056800366E000E376E9BD1250E4118D8B404D0D4
:100578004150DBEC06F093D1000E406E000E3F6E4A
:10058800000E3E6E03D03E842B4A2C2A2BC0F6FF69
:100598002CC0F7FF0800F550300AD8B4F4D72BC0A8
:1005A800F6FF2CC0F7FF0800F5507BEC06F0D8A04A
:1005B8003AD0000E406E000E3F6E3FC015F040C0AE
:1005C80016F0000E186E0A0E176E46EC06F015C0EF
:1005D8003FF016C040F0D00E316EFF0E326E2BC0C9
:1005E800F6FF2CC0F7FF0800F550336E346A31501F
:1005F80033263250342233503F26345040222B4A7F
:100608002C2A2BC0F6FF2CC0F7FF0800F5507BEC16
:1006180006F0D8A008D0D1D73E8805D03E8E1DD090
:10062800C00E3E121AD02BC0F6FF2CC0F7FF2B4A83
:100638002C2A0800F5CF41F04150000AD8B4120026
:10064800580AD8B4EBD7340AD8B4E6D7190AD8B4BC
:10065800E7D70D0AD8B4E2D722D13EA80ED036C0CB
:10066800D9FF37C0DAFFDECF3AF0DECF3BF0DECF7E
:100678003CF0DECF3DF0040E0FD036C0D9FF37C0B6
:10068800DAFFDECF31F0DDCF32F031C03AF032C0E0
:100698003BF03C6A3D6A020E3626000E37223CD0FB
:1006A800010E416E0A0E4118D8B43ED04150040DD7
:1006B800ED0EF324F66E3E0EF420F76E0900F550A9
:1006C8003A5C0900F5503B580900F5503C580900C0
:1006D800F5503D58D8A028D0412AE4D7010E416EE4
:1006E800080E4118D8B420D04150040D150EF3243B
:1006F800F66E3F0EF420F76E0900F5503A5C0900DB
:10070800F5503B580900F5503C580900F5503D5844
:10071800D8A00AD0412AE4D73E50C00B800AD8B4EA
:10072800DDD7400AD8B4BCD7800E41BE7F0E316EEB
:100738003F50415C4050800A3158D8B007D04150F2
:100748003F5E000E41BEFF0E405A04D0000E406EC0
:10075800000E3F6E3EA40BD03F504010D8B415D0C9
:10076800300EDBEC06F03F06D8A04006F5D73F5028
:100778004010D8B40AD0200EDBEC06F03F06D8A013
:1007880040063F504010D8A4F6D74150386E396A19
:1007980038BE39067CD038C031F039C032F0D89034
:1007A80031363236D89031363236ED0E3124F66E87
:1007B8003E0E3220F76E0900F5CF19F00900F5CF8B
:1007C8001AF00900F5CF1BF00A00F5CF1CF03AC06B
:1007D80015F03BC016F03CC017F03DC018F060ECB7
:1007E80004F015C022F016C023F017C024F018C07A
:1007F80025F00A0E266E000E276E000E286E000EDB
:10080800296EDEEC04F02250300F416E3DD03AC024
:1008180015F03BC016F03CC017F03DC018F038C0CA
:1008280031F039C032F0D89031363236D89031367E
:100838003236150E3124F66E3F0E3220F76E09005F
:10084800F5CF19F00900F5CF1AF00900F5CF1BF024
:100858000A00F5CF1CF060EC04F015500F0B356E54
:100868003550010D350EF324F66E3F0EF420F76E69
:100878000800F5CF41F008D03E50C00B800AD8B42C
:10088800C6D7400AD8B487D74150DBEC06F0380603
:10089800D8A039063828F0E13928D8A4EDD72BC0DC
:1008A800F6FF2CC0F7FF2B4A2C2A0800F5CF41F0A1
:1008B8004150D8B4120058D6000E1D6E000E1E6EA0
:1008C800000E1F6E000E206E19501A101B101C10FF
:1008D800D8B42AD0010E216E06D0D89019361A360F
:1008E8001B361C36212A1CAEF8D7D8901D361E366A
:1008F8001F3620361950155C1A5016581B501758B9
:100908001C501858D8A009D01950155E1A50165AFC
:100918001B50175A1C50185A1D80D8901C321B3275
:100928001A321932212EE1D71DC015F01EC016F05B
:100938001FC017F020C018F01200016E2FD0010E52
:10094800476E120049C048F00CD0482A030E4816DA
:1009580008D04750000AD8B4F8D7010AD8B4F2D75B
:10096800F4D7000E476E12004850D8B4D8C06FFFB5
:100978004804D8A403D0D4C06FFF0CD0020E481886
:10098800D8A403D0D2C06FFF05D0030E4818D8B43E
:10099800D0C06FFF482A030E481612000150000A03
:1009A800D8B4CDD7010AD8B4DFD7030AD8B4D1D781
:1009B800010A12002650271028102910D8B424D074
:1009C800010E2A6E06D0D8902636273628362936C4
:1009D8002A2A29AEF8D72650225C275023582850B7
:1009E800245829502558D8A008D02650225E2750D0
:1009F800235A2850245A2950255AD8902932283267
:100A0800273226322A2EE7D722C022F023C023F02D
:100A180024C024F025C025F01200000000000000CA
:100A280000000000000000000000000000000000BE
:100A380000000000000000000001000001010000AB
:100A48000101000001010000010100000000000098
:100A58000000010101010101010100000001010183
:100A68000101000000010101010101010101010171
:100A78000101010101010101010101000000000E55
:100A88001D6E170E1D6401D024D015A006D08282D9
:100A980000F000F000F0829205D08282829200F08D
:100AA80000F000F015C019F016C01AF017C01BF0BE
:100AB80018C01CF0D8901C321B321A32193219C0D7
:100AC80015F01AC016F01BC017F01CC018F01D2A2C
:100AD800D8D7A00E00D0E82EFDD71200000E1D6E4C
:100AE800000E1E6E000E1F6E000E206E15A008D0A0
:100AF80019501D261A501E221B501F221C5020223E
:100B0800D89019361A361B361C36D8901832173238
:100B1800163215321550161017101810D8A4E6D72B
:100B28001DC015F01EC016F01FC017F020C018F029
:100B38001200C4C015F0070E151682A803D0100EB7
:100B4800166E01D0166ACAC017F0010E1716050EE8
:100B5800186ED8901736182EFCD783A403D0400EF1
:100B6800196E01D0196ACBC01AF0010E1A16000EC0
:100B78001AB0800E1A6E1A50191017101610151088
:100B88000001D86F1200220EF66E0A0EF76E000EE4
:100B9800F86E00EE60F010EE64F00900F5CFEEFF9D
:100BA800E550E150FAE1DE0EF66E0D0EF76E000E1E
:100BB800F86E0900F5CF49F000EEC4F0150EEE6AA4
:100BC800E806FDE1486A476A4A904A92000EF86EC4
:100BD800000157EF00F0000E8D6E000E8C6E000EB7
:100BE800896E000E8A6E010E8B6E070E966E9268E5
:100BF8009368880E946EFB0E956E080E0F013A6F7F
:100C08003F0E396FF00E3B6F070E3C6F2F0E386F9B
:100C18006168F19E1200550E026EA49E6FCF02F01D
:100C28006DA40BD06DBA6BAC04D0030EA1EC04F02C
:100C38000FD0010EA1EC04F00BD06DBA04D0000E59
:100C4800A1EC04F005D002C049F0020EA1EC04F0BA
:100C58006C881200196E19C017F017461746C25053
:100C68001718830B1718C26EC280C282C2B2FED791
:100C7800C450186E176AC3501724156E000E18203A
:100C8800166E120015501702F3CF19F0F4CF1AF0B0
:100C980015501802F3501A2616501702F3501A2648
:100CA80019C015F01AC016F01200EDEC06F0EFECC2
:100CB80005F0BBEC06F08AEC06F0B0EC06F06AEC46
:100CC80006F099EC06F0A5EC06F01200300E0F01C4
:100CD8004E6F000E4D6F3C0E506FB00E4F6F4FCFE2
:100CE80044F050CF45F07E92E0EC06F01200176E0B
:100CF800000E166E3A0E176005D02F0E176402D03C
:100D0800010E166E16C015F015301200000E6D6E2D
:100D1800260E6C6E010E6B6E000E696EFE0E6A6E0C
:100D2800880E6E6EA49EA38E12007F0ED56E000EE6
:100D3800D76EFC0ED66EFC0E466EF294EBEC06F007
:100D48001200080EB86E900EAB6E240EAC6E440EF8
:100D5800AF6E000EB06E1200010EC26E000EC16EB4
:100D6800120EC06E000EC36E000EC46E1200700E1E
:100D7800D36E040ED26E000E9B6E1200700ED36EF0
:100D8800040ED26E400E9B6E1200156E9EA8FED702
:100D980015C0ADFF12007EA202D0010E1200000E97
:100DA8001200F2A402D0010E1200000E1200166EFC
:100DB8001650C9EC06F012000F014E8112008B98F4
:100DC80012008B8812008C8412008C941200D58E2D
:070DD8001200D09E1200552D
:103EEC0000010000000A00000064000000E803006C
:103EFC000010270000A086010040420F0080969819
:103F0C000000E1F50500CA9A3B010000001000001A
:103F1C000000010000001000000000010000001073
:103F2C00000000000100000010303132333435360F
:103F3C00373839414243444546000A0A0D5069332B
:103F4C0056202020202575206D56000A0A0D4C4560
:103F5C004420202030782530386C58000A0D5069E8
:103F6C003556202020202575206D56000A0D43540F
:103F7C00524C2020307825303258000A0D535441D1
:103F8C00542020307825303258000A0D42414E44DE
:103F9C00202020202575000A0D54554E4520202048
:103FAC00202575000A0D53544154452020202575B9
:103FBC00000A0D41435F4F4E2020202575000A0D4D
:103FCC00564F4C554D4520202575000A0D50495F24
:103FDC0052554E20202575000A0D53505F434E5408
:103FEC0020202575000A0D53545F434E5420202584
:033FFC007500004D
:020000040020DA
:08000000FFFFFFFFFFFFFFFF00
:020000040030CA
:0E000000FF281F3CFFBF81FF03C003E0034049
:00000001FF
