:0400000055EF00F0C8
:100008004882FACF03F0FBCF04F0E9CF05F0EACF3E
:1000180006F0E1CF07F0E2CF08F0D9CF09F0DACF48
:100028000AF0F3CF0BF0F4CF0CF0F6CF0DF0F7CFCA
:100038000EF0F8CF0FF0F5CF10F048C011F049C01E
:1000480012F04AC013F04BC014F0F2BCA3AE03D0B8
:10005800A4BE3CEC06F014C04BF013C04AF012C02A
:1000680049F011C048F010C0F5FF0FC0F8FF0EC0EE
:10007800F7FF0DC0F6FF0CC0F4FF0BC0F3FF0AC07A
:10008800DAFF09C0D9FF08C0E2FF07C0E1FF06C0D8
:10009800EAFF05C0E9FF04C0FBFF03C0FAFF48926E
:1000A8001100F4EF05F0000E0001EA6F000EE96F91
:1000B800000EEC6F000EEB6F86EC06F0000E0001F0
:1000C800CC6F000EDE6FE8EC06F097EC06F0C6EC9D
:1000D80006F00001CE4BCF2BCE51CF11D8A403D0C0
:1000E800CE07D8A0CF0783B602D0010E01D0000EEC
:1000F800D26FD251D8A40AD0D04BD12BD051D11124
:10010800D8A408D0D007D8A0D10704D0000ED16F4A
:10011800000ED06FCC05D8A41FD0CD05D8B40AD016
:10012800000ECF6F000ECE6F000ED16F000ED06F95
:10013800010ECD6F16EC07F010EC07F0000E000171
:10014800D46F000ED56F000ED66F000ED76FD35147
:10015800D8B49ED0020E9DD0020ECC19D8A421D0BE
:10016800020ECD19D8B406D0000ECF6F000ECE6F98
:10017800020ECD6FE40ED46FC80ED56F000ED66F89
:10018800000ED76F14EC07F012EC07F00001D35102
:10019800D8A402D0010ECC6FD205D8A4AFD0030EDC
:1001A80078D0030ECC19D8A424D0030ECD19D8B416
:1001B80006D0000ECF6F000ECE6F030ECD6FF80E77
:1001C800D46FF80ED56FF80ED66F000ED76F14ECFB
:1001D80007F012EC07F00001D351D8A405D010ECB9
:1001E80007F0040E0001CC6FD251D8A487D0050EB9
:1001F80050D0040ECC19D8A41ED0040ECD19D8B4F2
:1002080006D0000ECF6F000ECE6F040ECD6FFC0E21
:10021800D46F000ED56F000ED66F000ED76F14EC9A
:1002280007F010EC07F00001D15132E1650ED05D06
:10023800D8A064D02DD0050ECC19D8A42CD0050E8A
:10024800CD19D8B406D0000ECF6F000ECE6F050EB4
:10025800CD6FF00ED46F000ED56FF80ED66F000E6E
:10026800D76F14EC07F00001CF5109E1C80ECE5D3D
:10027800D8B005D0D251D8B402D0030ECC6FCF512C
:1002880004E1C90ECE5DD8A039D0D251D8A436D059
:10029800010ECC6F33D0CC51D8A430D0010ECC6F26
:1002A800000ECD6F000ECF6F000ECE6F000ED16F17
:1002B800000ED06F1CEC06F0000E0001D46F000E8B
:1002C800D56FF80ED66F000ED76F000EC86F000EF0
:1002D800C96F000ECA6F000ECB6F16EC07F012EC58
:1002E80007F08B948B90000E0001E06F000EDF6F1B
:1002F800880E2B6E3F0E2C6EDAEC02F08B8ADDEC4A
:1003080006F0000E5BEC06F015C0DCF016C0DDF060
:10031800010E5BEC06F015C0DAF016C0DBF0020E39
:100328005BEC06F015C0D8F016C0D9F0190E5BECDE
:1003380006F015C0EBF016C0ECF0EBC015F0ECC001
:1003480016F0176A186A880E196E130E1A6E000EC8
:100358001B6E000E1C6E9FEC05F00B0E05D0D8909E
:100368001832173216321532E82EF9D715C0E5F0D3
:1003780016C0E6F00F0E5BEC06F015C0E9F016C0EB
:10038800EAF0E9C015F0EAC016F0176A186A880E94
:10039800196E130E1A6E000E1B6E000E1C6E9FEC6B
:1003A80005F00A0E05D0D8901832173216321532D9
:1003B800E82EF9D715C0E7F016C0E8F08B9A0001CF
:1003C800DC51E16FDD51E26FE36BE46B040ED89012
:1003D800E137E237E337E437E82EF9D7E1C0D4F064
:1003E800E2C0D5F0E3C0D6F0E4C0D7F0010ED425C2
:1003F800C86F000ED521C96F000ED621CA6F000E36
:10040800D721CB6F490E2B6E3F0E2C6ED4C02DF02A
:10041800D5C02EF0D6C02FF0D7C030F0DAEC02F0FD
:10042800790E2B6E3F0E2C6EE0C02DF02E6ADAECA2
:1004380002F06A0E2B6E3F0E2C6EDFC02DF02E6A76
:10044800DAEC02F0F10E2B6E3F0E2C6ECEC02DF0C2
:10045800CFC02EF0DAEC02F0E40E2B6E3F0E2C6EBD
:10046800D0C02DF0D1C02EF0DAEC02F0B00E2B6E19
:100478003F0E2C6ECCC02DF02E6ADAEC02F0BD0EC9
:100488002B6E3F0E2C6ED3C02DF02E6ADAEC02F0E4
:10049800D70E2B6E3F0E2C6ED2C02DF02E6ADAECE2
:1004A80002F0A30E2B6E3F0E2C6EDCC02DF0DDC0CB
:1004B8002EF0DAEC02F0960E2B6E3F0E2C6EDAC0A0
:1004C8002DF0DBC02EF0DAEC02F0CA0E2B6E3F0ED8
:1004D8002C6ED8C02DF0D9C02EF0DAEC02F0380E10
:1004E8002B6E3F0E2C6EE5C02DF0E6C02EF0DAEC38
:1004F80002F05A0E2B6E3F0E2C6EE7C02DF0E8C0AE
:100508002EF0DAEC02F00001D451C8190AE1D551F5
:10051800C91907E1D651CA1904E1D751CB19D8B482
:1005280018D0F29EF29CEFEC06F0D4C015F0D5C0BE
:1005380016F0D6C017F0D7C018F06EEC05F0E8EC4E
:1005480006F0D4C0C8F0D5C0C9F0D6C0CAF0D7C02C
:10055800CBF0F28EF28CFCEC06F00009D8B4FBD795
:100568000001DE2B0B0EDE6502D0000EDE6FCC51D3
:100578000C0D600EE16F000EE26FF350E127F450AE
:10058800E223DE51010DF350E125D96EF450E2214A
:10059800DA6EDF50D8A402D08B9001D08B8002ECA9
:1005A80007F00001D36FCAEC05F08DD52D0E366E1D
:1005B800000E376E9BD1250E4118D8B404D0415097
:1005C80008EC07F093D1000E406E000E3F6E000E4F
:1005D8003E6E03D03E842B4A2C2A2BC0F6FF2CC03B
:1005E800F7FF0800F550300AD8B4F4D72BC0F6FF4F
:1005F8002CC0F7FF0800F550A8EC06F0D8A03AD0B8
:10060800000E406E000E3F6E3FC015F040C016F061
:10061800000E186E0A0E176E73EC06F015C03FF048
:1006280016C040F0D00E316EFF0E326E2BC0F6FFB2
:100638002CC0F7FF0800F550336E346A315033266A
:100648003250342233503F26345040222B4A2C2A31
:100658002BC0F6FF2CC0F7FF0800F550A8EC06F0F9
:10066800D8A008D0D1D73E8805D03E8E1DD0C00E68
:100678003E121AD02BC0F6FF2CC0F7FF2B4A2C2AAB
:100688000800F5CF41F04150000AD8B41200580ACA
:10069800D8B4EBD7340AD8B4E6D7190AD8B4E7D710
:1006A8000D0AD8B4E2D722D13EA80ED036C0D9FF61
:1006B80037C0DAFFDECF3AF0DECF3BF0DECF3CF0DA
:1006C800DECF3DF0040E0FD036C0D9FF37C0DAFFB9
:1006D800DECF31F0DDCF32F031C03AF032C03BF03E
:1006E8003C6A3D6A020E3626000E37223CD0010EC7
:1006F800416E0A0E4118D8B43ED04150040DDF0EA9
:10070800F324F66E3E0EF420F76E0900F5503A5CBD
:100718000900F5503B580900F5503C580900F550C0
:100728003D58D8A028D0412AE4D7010E416E080EC2
:100738004118D8B420D04150040D070EF324F66EAA
:100748003F0EF420F76E0900F5503A5C0900F550A9
:100758003B580900F5503C580900F5503D58D8A0C1
:100768000AD0412AE4D73E50C00B800AD8B4DDD75E
:10077800400AD8B4BCD7800E41BE7F0E316E3F50C0
:10078800415C4050800A3158D8B007D041503F5E94
:10079800000E41BEFF0E405A04D0000E406E000EFF
:1007A8003F6E3EA40BD03F504010D8B415D0300E49
:1007B80008EC07F03F06D8A04006F5D73F50401098
:1007C800D8B40AD0200E08EC07F03F06D8A040069F
:1007D8003F504010D8A4F6D74150386E396A38BE19
:1007E80039067CD038C031F039C032F0D890313673
:1007F8003236D89031363236DF0E3124F66E3E0E60
:100808003220F76E0900F5CF19F00900F5CF1AF07C
:100818000900F5CF1BF00A00F5CF1CF03AC015F01F
:100828003BC016F03CC017F03DC018F087EC04F050
:1008380015C022F016C023F017C024F018C025F008
:100848000A0E266E000E276E000E286E000E296E08
:100858003BEC05F02250300F416E3DD03AC015F008
:100868003BC016F03CC017F03DC018F038C031F05E
:1008780039C032F0D89031363236D89031363236E7
:10088800070E3124F66E3F0E3220F76E0900F5CFC1
:1008980019F00900F5CF1AF00900F5CF1BF00A008E
:1008A800F5CF1CF087EC04F015500F0B356E355062
:1008B800010D270EF324F66E3F0EF420F76E0800A4
:1008C800F5CF41F008D03E50C00B800AD8B4C6D747
:1008D800400AD8B487D7415008EC07F03806D8A0AA
:1008E80039063828F0E13928D8A4EDD72BC0F6FF0F
:1008F8002CC0F7FF2B4A2C2A0800F5CF41F04150B5
:10090800D8B4120058D6000E1D6E000E1E6E000ED2
:100918001F6E000E206E19501A101B101C10D8B430
:100928002AD0010E216E06D0D89019361A361B36F9
:100938001C36212A1CAEF8D7D8901D361E361F3615
:1009480020361950155C1A5016581B5017581C5051
:100958001858D8A009D01950155E1A50165A1B50AD
:10096800175A1C50185A1D80D8901C321B321A3244
:100978001932212EE1D71DC015F01EC016F01FC078
:1009880017F020C018F01200016E2FD0010E456E2E
:10099800120047C046F00CD0462A030E461608D06F
:1009A8004550000AD8B4F8D7010AD8B4F2D7F4D71A
:1009B800000E456E12004650D8B4E0C06FFF4604E2
:1009C800D8A403D0DCC06FFF0CD0020E4618D8A400
:1009D80003D0DAC06FFF05D0030E4618D8B4D8C0CC
:1009E8006FFF462A030E461612000150000AD8B4BB
:1009F800CDD7010AD8B4DFD7030AD8B4D1D7010AB2
:100A08001200FFFFFFFFFFFFFFFFFFFFFFFFFF00D9
:100A180000000000000000000000FFFFFF000000D1
:100A2800FFFFFF000000FFFFFFFFFFFFFFFFFFFFCB
:100A3800FFFF00FFFFFFFFFF00FFFFFFFFFFFFFFBC
:100A4800FFFFFFFFFFFFFFFFFFFFFC000000E4C800
:100A58000000E8E8000000F800000000F800F000DE
:100A6800F800E0F8F800F8F8F80001000000265057
:100A7800271028102910D8B424D0010E2A6E06D0C9
:100A8800D89026362736283629362A2A29AEF8D786
:100A98002650225C2750235828502458295025587E
:100AA800D8A008D02650225E2750235A2850245A0E
:100AB8002950255AD89029322832273226322A2E10
:100AC800E7D722C022F023C023F024C024F025C099
:100AD80025F01200000E1D6E170E1D6401D024D0E3
:100AE80015A006D0828200F000F000F0829205D0B6
:100AF8008282829200F000F000F015C019F016C052
:100B08001AF017C01BF018C01CF0D8901C321B320A
:100B18001A32193219C015F01AC016F01BC017F096
:100B28001CC018F01D2AD8D7A00E00D0E82EFDD77B
:100B3800828282921200000E1D6E000E1E6E000E42
:100B48001F6E000E206E15A008D019501D261A50D1
:100B58001E221B501F221C502022D89019361A36EC
:100B68001B361C36D89018321732163215321550EB
:100B7800161017101810D8A4E6D71DC015F01EC0FF
:100B880016F01FC017F020C018F01200CCC015F0E6
:100B9800070E151682A803D0100E166E01D0166A1D
:100BA800D2C017F0010E1716050E186ED89017361A
:100BB800182EFCD783A403D0400E196E01D0196AF1
:100BC800D3C01AF0010E1A16000E1AB0800E1A6E53
:100BD8001A5019101710161015100001E06F1200A6
:100BE8000A0EF66E0A0EF76E000EF86E00EE60F052
:100BF80010EE6CF00900F5CFEEFFE550E150FAE198
:100C0800380EF66E0E0EF76E000EF86E0900F5CF70
:100C180047F000EECCF0150EEE6AE806FDE1466AF4
:100C2800456A48904892000EF86E000157EF00F0B0
:100C3800000E8D6E000E8C6E000E896E000E8A6E90
:100C4800010E8B6E070E966E92689368880E946EEE
:100C5800FB0E956E080E0F013A6F3F0E396FF00EBE
:100C68003B6F070E3C6F2F0E386F6168F19E1200C4
:100C7800550E026EA49E6FCF02F06DA40BD06DBA14
:100C88006BAC04D0030EC8EC04F00FD0010EC8EC16
:100C980004F00BD06DBA04D0000EC8EC04F005D0F7
:100CA80002C047F0020EC8EC04F06C881200196EFE
:100CB80019C017F017461746C2501718830B171894
:100CC800C26EC280C282C2B2FED7C450186E176A02
:100CD800C3501724156E000E1820166E12001550FA
:100CE8001702F3CF19F0F4CF1AF015501802F35089
:100CF8001A2616501702F3501A2619C015F01AC0F2
:100D080016F012001AEC07F01CEC06F0E8EC06F0FE
:100D1800B7EC06F0DDEC06F097EC06F0C6EC06F052
:100D2800D2EC06F01200300E0F014E6F000E4D6F20
:100D38003C0E506FB00E4F6F4FCF42F050CF43F084
:100D48007E920DEC07F01200176E000E166E3A0E2A
:100D5800176005D02F0E176402D0010E166E16C04C
:100D680015F015301200000E6D6E260E6C6E010E19
:100D78006B6E000E696EFE0E6A6E880E6E6EA49E15
:100D8800A38E12007F0ED56E000ED76EFC0ED66EA7
:100D9800FC0E446EF29418EC07F01200080EB86EC0
:100DA800900EAB6E240EAC6E440EAF6E000EB06E9D
:100DB8001200010EC26E000EC16E920EC06E000EC1
:100DC800C36E000EC46E1200700ED36E040ED26E87
:100DD800000E9B6E1200700ED36E040ED26E400E83
:100DE8009B6E1200156E9EA8FED715C0ADFF1200AF
:100DF8007EA202D0010E1200000E1200F2A402D050
:100E0800010E1200000E1200166E1650F6EC06F0D7
:100E180012000F014E8112008B9812008B8812006D
:100E28008C8412008C941200D58E1200D09E120071
:010E38005564
:103EDE0000010000000A00000064000000E803007A
:103EEE000010270000A086010040420F0080969827
:103EFE000000E1F50500CA9A3B0100000010000029
:103F0E000000010000001000000000010000001081
:103F1E00000000000100000010303132333435361D
:103F2E00373839414243444546000A0A0D50693339
:103F3E0056202020202575206D56000A0A0D4C456E
:103F4E004420202030782530386C58000A0D5069F6
:103F5E003556202020202575206D56000A0D43541D
:103F6E00524C2020307825303258000A0D535441DF
:103F7E00542020307825303258000A0A0D2152453F
:103F8E00534554210A0A0D000A0D42414E44202089
:103F9E0020202575000A0D54554E45202020202541
:103FAE0075000A0D53544154452020202575000AF2
:103FBE000D41435F4F4E2020202575000A0D564FB0
:103FCE004C554D4520202575000A0D50495F525520
:103FDE004E20202575000A0D53505F434E5420206D
:103FEE002575000A0D53545F434E5420202575004D
:013FFE0000C2
:020000040020DA
:08000000FFFFFFFFFFFFFFFF00
:020000040030CA
:0E000000FF281F3CFFBF81FF03C003E0034049
:00000001FF
